S02B00002F2F535256412F486F6D6573242F72656E79616368752F446F63756D656E74732F45434520323433C7
S113002004FCFFDE350300DC350240DC3501C0DCB6
S1130030350000DD34C8FF050400C0BD3A882B003C
S11300403A3131000C2000C6263400C034C83F06C3
S1130050044000C6370000C6CC3F00C644188005E3
S1130060540040AD350040BD261E80C5041B8005EC
S1130070940040AD350040BD261C80C5440C80056D
S1130080140140AD350040BD260980C5840C8005AF
S1130090140240AD350040BD260780C5C40C800560
S11300A0140440AD350040BD260580C5060500009A
S11300B0440080040603000084008004060100005C
S11300C0C4008004440080054C00C09C2609809D27
S11300D03701C0DC040480050C04C09C2608809D04
S11300E0060E00005400C09C060C00001404C09CC2
S11300F0060A00003A70269826050095C4FF3F843E
S11301003A70269826040095C4FF7F8C06030000ED
S113011044000084060100004400408C0404C0DE56
S10701203A0880EF26
S1130200440000023A70014004200002FA700140E8
S113021034C83F02044000424400400235014042D9
S113022034C83F020400084214C04B023502404265
S1130230145A56023503404235000040040140027E
S113024035014042370040424C00404A26FD3F48B9
S107025006EB3F0076
S9030200FA
